:100200000C9420020C9448020C9448020C9448026E
:100210000C9448020C9448020C9448020C94480236
:100220000C9448020C9448020C9448020C94480226
:100230000C9448020C9448020C9448020C94480216
:100240000C9448020C9448020C9448020C94480206
:100250000C9448020C9448020C9448020C944802F6
:100260000C9448020C9448020C9448020C944802E6
:100270000C9448020C9448020C9448020C944802D6
:100280000C9448020C9448020C9448020C944802C6
:100290000C948F290C9461290C943B290C944802EE
:1002A0004E414E494E495459494E46CDCCCC3D0A5B
:1002B000D7233C17B7D13877CC2B329595E6241F3E
:1002C000B14F0A000020410000C84200401C4620F7
:1002D000BCBE4CCA1B0E5AAEC59D7467E6096A8542
:1002E000AE67BB72F36E3C3AF54FA57F520E518C50
:1002F00068059BABD9831F19CDE05B982F8A42918B
:10030000443771CFFBC0B5A5DBB5E95BC25639F107
:1003100011F159A4823F92D55E1CAB98AA07D8016F
:100320005B8312BE853124C37D0C55745DBE72FEA5
:10033000B1DE80A706DC9B74F19BC1C1699BE4869A
:1003400047BEEFC69DC10FCCA10C246F2CE92DAA8E
:1003500084744ADCA9B05CDA88F97652513E986D13
:10036000C631A8C82703B0C77F59BFF30BE0C64703
:1003700091A7D55163CA0667292914850AB727387A
:10038000211B2EFC6D2C4D130D385354730A65BB85
:100390000A6A762EC9C281852C7292A1E8BFA24B4F
:1003A000661AA8708B4BC2A3516CC719E892D1246E
:1003B0000699D685350EF470A06A1016C1A41908E6
:1003C0006C371E4C774827B5BCB034B30C1C394A87
:1003D000AAD84E4FCA9C5BF36F2E68EE828F746F63
:1003E00063A5781478C8840802C78CFAFFBE90EB26
:1003F0006C50A4F7A3F9BEF27871C641424344455C
:10040000464748494A4B4C4D4E4F50515253545514
:10041000565758595A6162636465666768696A6BC2
:100420006C6D6E6F707172737475767778797A30DF
:100430003132333435363738392B2F000D2AF32932
:1004400011241FBECFEFCDBFDFE3DEBF18E2A0E077
:10045000B8E2E0E2F1E802C005900D92AE30B107DB
:10046000D9F729E2AEE0B8E201C01D92AF38B20779
:10047000E1F712E0CFE1D2E004C02197FE010E9433
:10048000FE39CE31D107C9F70E94B22A0C94DD3D66
:100490000C940001CF93DF93EC01FA013296E60F42
:1004A000F71FDC019D012C1B3D0BCF01861B970B19
:1004B0004D91442311F04193F5CFAC01421B530BF6
:1004C000640F751FFB013297308361507109FB0186
:1004D0002083DF91CF910895FC0154894589252F10
:1004E00030E0842F90E0821B930B541710F0CF96CE
:1004F000089501970895FC0192898389981761F006
:10050000A389AE0FBF2FB11D59968C9193899F5F20
:100510009F73938B90E008958FEF9FEF0895FC01F8
:1005200092898389981731F08389E80FF11D818DB5
:1005300090E008958FEF9FEF0895FC019289238941
:10054000892F90E0805C9F4F821B91098F739927C0
:100550000895CF93DF93EC01E881F9810680F7815C
:10056000E02D0995EC85FD8586818F738683EC856A
:10057000FD8585818F7585838B898A8B198ADF91AB
:10058000CF910895CF93DF93FC0194898589C48529
:10059000D585981306C08D818F7D8D83DF91CF9196
:1005A0000895A589AE0FBF2FB11DA75ABF4F2C913B
:1005B000858990E001968F739927858B80E48C83E1
:1005C000A485B58512962C93948985899813E6CFD6
:1005D000A485B58515968C9115978F7D15968C936E
:1005E00087898823D9F2808D80931301178AD6CF0B
:1005F000DC011C96ED91FC910FB607FE03C025812E
:1006000025FD04C0248125FD0C94C2020895EF92BB
:10061000FF920F931F93CF93DF93EC0181E0898BBF
:100620009C898D8998131CC0AC85BD8514968C91CE
:10063000149785FF15C012966C93AC85BD8580E438
:1006400014968C93EC85FD8585818F7D858381E073
:1006500090E0DF91CF911F910F91FF90EF9008955F
:100660008091110180FF08C080911301888F8E89CD
:100670008093130181E08F8BF62E0C8910E00F5FC1
:100680001F4F0F731127E02E8D898E1104C0CE01EC
:100690000E94F802F9CFEC89EC0FFD2FF11DE75A0B
:1006A000FF4FF0820C8BEC85FD8585818062CECF7B
:1006B000CF93DF93FC0121892223C9F0EC018091C3
:1006C000110180FF08C080911301808F868980937B
:1006D000130181E0878BEC85FD85858185FD03C055
:1006E000848186FD04C0CE010E94F802F4CFDF9120
:1006F000CF9108950895AF92BF92CF92DF92EF927B
:10070000FF920F931F93CF93DF936C017B018B01BB
:10071000040F151FEB015E01AE18BF08C017D1070B
:1007200059F06991D601ED91FC910190F081E02D95
:10073000C6010995892B79F7C501DF91CF911F91EA
:100740000F91FF90EF90DF90CF90BF90AF90089502
:1007500081E00895CF93DF9390E0FC01E255F244ED
:1007600020812F3F71F0FC01EB57F244A08130E271
:10077000A39FD0011124BC5F6130710529F411964B
:100780002C93DF91CF9108958B5B9344EC01E8812A
:10079000EF3F89F0CD014096E80FF92FF11D9FB78B
:1007A000F89412962C9380816230710539F4886038
:1007B00080839FBFE6CFF0E0E0E0F1CF877FF8CF06
:1007C000893210F40C94AA030895282F30E0F9011F
:1007D000E45EF344E081EE2309F1E13021F0F0F032
:1007E000E63098F008954091010A2B5B3344F901FB
:1007F00020812C5F81E090E001C0880F2A95EAF704
:10080000809584238093010A089580E1E89FF00198
:100810001124E05AF54F81818F7E81830895FF92E4
:100820000F931F93CF93DF93082F10E0F801E25549
:10083000F244F0809FEFF916A1F0EB01893210F439
:100840000E94E503F801EB57F244E08180E2E89F63
:10085000F0011124FC5F80818F2159F0CD2B39F4F8
:10086000F682DF91CF911F910F91FF900895F5824D
:10087000F8CFD801AB5BB3448C91309771F08F3FC8
:1008800061F07096E80FF11D9FB7F8948081CD2B31
:1008900039F4877F80839FBFE4CFF0E0E0E0F4CFBE
:1008A0008860F8CF893210F40C940F040895CF9229
:1008B000DF92EF92FF920F931F93CF93DF93EC01A0
:1008C0006A017B01022F8989882339F0E881F98147
:1008D0000288F389E02DCE01099598898091E2057F
:1008E000892B8093E2051FB7F89460E070E281EAFB
:1008F00097E0A70196010E94853969017A018FEF7F
:10090000C81AD80AE80AF80AF694E794D794C79464
:10091000EC85FD8586818D7F8683EC85FD858681CE
:100920008683198AA09123110A2E000CBB0BA70104
:1009300096010E94CD3920E034E040E050E00E9472
:10094000A739EC85FD85C20ED31EE41EF51EC086B8
:10095000D186EC85FD850783EC85FD858681806CDD
:100960008683EC85FD858581806885838E8562E040
:1009700070E00E94E0038F8561E070E00E94520405
:100980008F8561E070E00E94E0031FBFDF91CF918F
:100990001F910F91FF90EF90DF90CF9008950F93EC
:1009A0001F93CF93082F10E0F801E255F244C08165
:1009B000CF3FB9F0893210F40E94E503F801EB57FC
:1009C000F244E08180E2E89FF0011124FC5F808521
:1009D000C82381E090E009F480E0CF911F910F914E
:1009E000089580E090E0F9CFCF93DF938FB7F8942C
:1009F00020911528309116284091172850911828D9
:100A0000E091BA0A9091B60A90FF06C02F5F3F4F5F
:100A10004F4F5F4FE091BA0A8FBFA0911F28B0914E
:100A20002028C0911D28D0911E280E942639EC9FB5
:100A30009001ED9F300D1124620F731F811D911DD8
:100A4000DF91CF9108958F929F92AF92BF92CF92F4
:100A5000DF92EF92FF924B015C010E94F4046B0164
:100A60007C01A8EEB3E0A50194010E942639C60ED0
:100A7000D71EE81EF91EC616D706E806F90618F4B2
:100A80000E94F404F8CF0E94F4046C157D058E05D5
:100A90009F05C8F3FF90EF90DF90CF90BF90AF908D
:100AA0009F908F9008952FB7F894609111287091BE
:100AB000122880911328909114282FBF0895EF9247
:100AC000FF920F931F93CF93DF937C01EB018B0178
:100AD000040F151FC017D10759F0D701ED91FC91F4
:100AE0000190F081E02D6881C70109958993F2CFCB
:100AF000DF91CF911F910F91FF90EF9008950F9389
:100B00001F93CF93DF93EC018B018091C008E881A4
:100B1000F9810190F081E02D86FD13C0612FCE0197
:100B20000995182FE881F9810190F081E02D602F5F
:100B3000CE010995082FC801DF91CF911F910F9128
:100B40000895CE010995082FE881F9810190F0817F
:100B5000E02D612FCE010995182FEDCF0000609395
:100B6000C4088091C30887FFFCCF8091C408089512
:100B70008F929F92AF92BF92CF92DF92EF92FF92AD
:100B80000F931F93CF93DF93FC018085882319F087
:100B900081FF0EC07894DF91CF911F910F91FF904C
:100BA000EF90DF90CF90BF90AF909F908F9008957F
:100BB00080FFF1CF82849384A484B584C12CD12C8E
:100BC000760110E09401A501B601C701A0E00E94E2
:100BD000F23999F1217030E040E050E060E070E0DF
:100BE00080E090E00E94F239D9F0D0E0C0E010330C
:100BF00070F4C12FC695C695C69580E2C89FE001E6
:100C00001124C05FDB4F812F8770C80FD11DCF012A
:100C1000810F911DDC0152968C919881892B8883DC
:100C20009401A501B601C70101E00E94D73949012D
:100C30005A016B017C011F5FC5CF86849784A08811
:100C4000B188C12CD12C760110E29401A501B60126
:100C5000C701A0E00E94F23909F49DCF217030E075
:100C600040E050E060E070E080E090E00E94F23907
:100C7000D9F0D0E0C0E0103370F4C12FC695C6950E
:100C8000C695B0E2CB9FE0011124C05FDB4F812FFE
:100C90008770C80FD11DCF01810F911DDC015296C5
:100CA0008C919881892B88839401A501B601C70195
:100CB00001E00E94D73949015A016B017C011F5F95
:100CC000C4CFFC016F3F710581F1808581FD2DC08E
:100CD000603271055CF581E090E002C0880F991FD9
:100CE0006A95E2F780959095092E000CAA0BBB0B34
:100CF000428553856485758584239523A623B72370
:100D000082879387A487B58782859385A485B585D7
:100D1000892B8A2B8B2B49F486859785A089B189ED
:100D2000892B8A2B8B2B09F4108608956052710948
:100D300081E090E002C0880F991F6A95E2F78095E4
:100D40009095092E000CAA0BBB0B46855785608930
:100D5000718984239523A623B72386879787A08B41
:100D6000B18BD2CFFC016F3F7105E9F160337105A2
:100D70001CF082E0808708958085816080876032E2
:100D80007105C4F481E090E002C0880F991F6A9554
:100D9000E2F7092E000CAA0BBB0B42855385648534
:100DA0007585842B952BA62BB72B82879387A487D9
:100DB000B58708956052710981E090E002C0880F04
:100DC000991F6A95E2F7092E000CAA0BBB0B46850A
:100DD000578560897189842B952BA62BB72B868725
:100DE0009787A08BB18B0895E0ECF8E020812E7FEF
:100DF0002083FC0117820895E0ECF8E082818E7F69
:100E000082830895E0ECF8E0828181608283089516
:100E1000CF93DF93FC01A481B581109711F480E09A
:100E200029C0EC01ED91FC9111970688F789E02D1E
:100E3000CD0109952FA138A5811119C0232B79F770
:100E40008DEF9FEF8FA398A78C819D81DC01ED91A1
:100E5000FC910680F781E02D09958C819D81DC0154
:100E6000ED91FC910488F589E02D0995D8CF81E0BA
:100E7000232BA9F6DF91CF910895CF92DF92EF92C5
:100E8000FF920F931F93CF93DF9300D000D0CDB785
:100E9000DEB78C01F90180E0DE0111967D019E2F05
:100EA0009F77EE0FEF2FEE1FFF0BF195309709F0B4
:100EB0009068D701A80FB11D9C938F5F309779F789
:100EC00090E0FA01E81BF90B6483FA01E81BF90BC7
:100ED0003596D701BD016E197F09681779071CF493
:100EE0006D916193F7CFFC013196D80114968D91E5
:100EF0009C917F01E20EF31EBA016E1B7F0B6B5FAC
:100F00007F4FDC01ED91FC910280F381E02DA70180
:100F100009956C010E945305F801608B718B828BDF
:100F2000938B81E0EC14FD0409F080E02496CDBFA2
:100F3000DEBFDF91CF911F910F91FF90EF90DF9077
:100F4000CF900895EF92FF920F931F93CF93DF936B
:100F5000EC018B017A010E945305688B798B8A8B97
:100F60009B8B8C819D81DC01ED91FC910280F38152
:100F7000E02DA701B801DF91CF911F910F91FF9054
:100F8000EF9009941F93CF93DF93EC01162F0E94EB
:100F90005305688B798B8A8B9B8B8C819D81DC01BF
:100FA000ED91FC910190F081E02D612FDF91CF91C7
:100FB0001F9109948F929F92AF92BF92CF92DF922E
:100FC000EF92FF920F931F93CF93DF93EC018B016E
:100FD0000E9453054B015C018C819D81DC01ED91E8
:100FE000FC910084F185E02D0995892BA9F40E94DC
:100FF00053056B017C01C818D908EA08FB082C8549
:101000003D85A8EEB3E00E946239C616D706E80611
:10101000F90610F380E00CC08C819D81DC01ED911C
:10102000FC910284F385E02D0995F801808381E02D
:10103000DF91CF911F910F91FF90EF90DF90CF90B4
:10104000BF90AF909F908F9008953F924F925F9284
:101050006F927F928F929F92AF92BF92CF92DF92C8
:10106000EF92FF920F931F93CF93DF93CDB7DEB72D
:101070006497CDBFDEBF8C016B01DC0116966D91CC
:101080007C910E94DA07811118C060E070E0CB010A
:101090006496CDBFDEBFDF91CF911F910F91FF907E
:1010A000EF90DF90CF90BF90AF909F908F907F9008
:1010B0006F905F904F903F900895D8011696ED91F4
:1010C000FC9130801982E1E0F0E0EA83FB83412C5F
:1010D000512C3201812C912C54018394BE016F5FFD
:1010E0007F4FC8010E94DA07882379F2EA80FB80EB
:1010F000BFEFEB1AFB0A8981D8011696ED91FC919E
:101100002A813B81E20FF31F8083E981AE2FAF7705
:10111000B0E0A50194010E942639460E571E681EB4
:10112000791E37E0880C991CAA1CBB1C3A95D1F794
:10113000E7FD44C0332D307F332E8FEF8E0DD60167
:101140008C93B0E33B1353C0F801668177816E0D39
:101150007F1DC8010E94DA07882309F496CFD801C1
:1011600016966D917C918A819B810296680F791FFA
:10117000C8010E94DA07882309F487CFEA80FB8040
:10118000B3E0EB0EF11CD8011696ED91FC91D6015F
:101190008C91DF01A80FB11D11968C91119790E0F1
:1011A000982F882712962C91820F911D208121FD66
:1011B0000296F2E0E0E030E020E01FC0EA82FB822D
:1011C00097012530310509F089CF8FEF9FEFD801C6
:1011D00097968D939C93989714968D919C91DC0192
:1011E000ED91FC910488F589E02D09954ECFF0E052
:1011F000E0E030E020E090E080E0A70170E060E017
:101200008F2E9E2EA32EB22E481959096A097B09EA
:101210004E835F83688779879C0150E040E02B878D
:101220003C874D875E874E815F8168857985480D53
:10123000591D6A1D7B1D4A835B836C837D838414E7
:101240009504A604B70408F051C0BE016F5F7F4F3C
:10125000C8010E94DA07882309F417CFD8019596B0
:101260000D90BC91A02DAB8BBC8BAB2B49F1B0E3A7
:101270003B1226C0F60120814EEF5FEF6FEF7FEF4C
:10128000421B5109610971098A819B81AC81BD8131
:10129000480F591F6A1F7B1F8B859C85AD85BE85B6
:1012A00084179507A607B70758F4AB89BC89ED9159
:1012B000FC9111970190F081E02D6981CD01099594
:1012C000F80180859185E816F90650F48981068039
:1012D000F781E02DEE0DFF1D8083FFEFEF1AFF0A6F
:1012E0002FEF821A920AA20AB20A9DCFD8019596D0
:1012F0008D919C919697892B81F418968D919C9154
:10130000B0E0A0E02A813B814C815D818217930788
:10131000A407B50710F4F12CE12CB70190E080E0B0
:10132000B7CE80910228893220F40E94CF04892B05
:10133000C1F70895CF93DF931F92CDB7DEB78983AE
:1013400069818BEC98E20F90DF91CF910C94AE0500
:10135000CF93DF93D82FC62F80EE0E949A098D2F4E
:101360000E949A098C2F0E949A09C11105C08EEE25
:10137000DF91CF910C949A09DF91CF910895DF927C
:10138000EF92FF920F931F93CF93DF93D82EE92E06
:101390008B01F42E812F0E949A09802F0E949A09B6
:1013A000CD2DDE2D0C0F1D1FC017D10721F0899107
:1013B0000E949A09F9CF81E0F8120AC08EEEDF91FF
:1013C000CF911F910F91FF90EF90DF900C949A09AD
:1013D000DF91CF911F910F91FF90EF90DF900895D3
:1013E000DF92EF92FF920F931F93CF93DF937C01D5
:1013F000C62FD42E862F0E949A098701D0E0C801FB
:101400008E199F098C179D0734F4F80181918F0183
:101410000E949A09F4CFF1E0DF120AC08EEEDF914C
:10142000CF911F910F91FF90EF90DF900C949A094C
:10143000DF91CF911F910F91FF90EF90DF90089572
:10144000CF93DF93EC018FEF0E949A098883DF919D
:10145000CF910895CF93DF931F92CDB7DEB7198256
:10146000CE0101960E94200A89810F90DF91CF91D1
:101470000895CF93DF93C9EED3E00E942A0A8F3EEE
:1014800069F0219711F0803EC1F721E090E0803EA5
:1014900009F020E0822FDF91CF9108958FEF9FEF29
:1014A000FACFCF92DF92EF92FF920F931F93CF93D9
:1014B000DF931F92CDB7DEB7182F6B017A01198227
:1014C0000E94390A892B61F490E080E00F90DF914F
:1014D000CF911F910F91FF90EF90DF90CF900895E3
:1014E000CE0101960E94200A106889811813ECCF62
:1014F000CE0101960E94200A8981813029F78FEF61
:101500000E949A09F701808310E000E0F7018081D2
:101510008017110649F044F0C601800F911F0E9408
:10152000200A0F5F1F4FF2CFCE0101960E94200AC2
:1015300081E090E0CBCFCF92DF92EF92FF920F93BA
:101540001F93CF93DF931F92CDB7DEB7182F7B0188
:101550006A0119820E94390A892B61F490E080E0C7
:101560000F90DF91CF911F910F91FF90EF90DF903F
:10157000CF900895CE0101960E94200A10688981BB
:101580001813ECCF0E942A0A8823B1F08FEF0E9433
:101590009A09F60180838701F6012081C8018E191E
:1015A0009F092817190641F03CF08FEF0E949A0915
:1015B000F80181938F01F0CFCE0101960E94200A9D
:1015C00081E090E0CDCF61E070E0809101280E9441
:1015D00052048BEC98E20C94B8050895CF93DF93F6
:1015E0001F92CDB7DEB76983DC01ED91FC910280DB
:1015F000F381E02D41E050E0BE016F5F7F4F099520
:101600000F90DF91CF910895FC018785908908950F
:10161000DC01ED91FC91048CF58DE02D099421E025
:10162000FC0184858F3F09F420E0822F0895CF9339
:10163000DF931F92CDB7DEB76983DC01ED91FC919A
:101640000280F381E02D41E050E0BE016F5F7F4FEB
:1016500009950F90DF91CF9108952F923F924F926D
:101660005F926F927F928F929F92AF92BF92CF9232
:10167000DF92EF92FF920F931F93CF93DF93CDB73B
:10168000DEB7C554D109CDBFDEBF26968EAF9FAF62
:101690002697DC01A853BF4F8C91E3E0E8272696FC
:1016A0008EAC9FAC26978E0E911CF401E857FF4F2D
:1016B00060838F5F8C93803409F085C22696EEADEF
:1016C000FFAD2697E859FF4FA080B180C280D3803C
:1016D000A8A2B9A2CAA2DBA22696EEADFFAD2697BC
:1016E000E459FF4FC080D180E280F380CCA2DDA21C
:1016F000EEA2FFA22696EEADFFAD2697E059FF4F72
:10170000E080F18002811381E8A6F9A60AA71BA751
:101710002696EEADFFAD2697EC58FF4F0081118164
:10172000228133810CA71DA72EA73FA72696EEADD9
:10173000FFAD2697E858FF4F2081318142815381C8
:1017400028AB39AB4AAB5BAB2696EEADFFAD269727
:10175000E458FF4F80819181A281B3818CAB9DAB16
:10176000AEABBFAB2696EEADFFAD2697E058FF4F70
:1017700080809180A280B38088AE99AEAAAEBBAEC5
:101780002696EEADFFAD2697EC57FF4FA080B180B7
:10179000C280D380ACAEBDAECEAEDFAE0BEF12E0FA
:1017A0000E8F1F8F2CA53DA54EA55FA52E8B3F8BC1
:1017B000488F598F88A599A5AAA5BBA58A879B871D
:1017C000AC87BD878CA09DA0AEA0BFA08E869F8653
:1017D000A88AB98A48A159A16AA17BA1A8ACB9ACD1
:1017E000CAACDBACAA8ABB8ACC8ADD8ACCA8DDA8CD
:1017F000EEA8FFA8CA8EDB8EEC8EFD8E8CAD9DAD63
:10180000AEADBFADE8A8F9A80AA91BA9ED82FE827A
:101810000F8318871AEF212E33243A941986EE8D00
:10182000FF8D45905590659074900D811E812F819C
:101830003885EAE1000F111F221F331FEA95D1F707
:10184000CD80DE80EF80F884F6E0F694E794D794BC
:10185000C794FA95D1F70C291D292E293F29CD804F
:10186000DE80EF80F884E5E1CC0CDD1CEE1CFF1C73
:10187000EA95D1F78D809E80AF80B884FBE0B69466
:10188000A79497948794FA95D1F7C828D928EA287D
:10189000FB28C026D126E226F3268D809E80AF80CD
:1018A000B88419E1B694A794979487941A95D1F7C0
:1018B0000D811E812F813885E7E0000F111F221F47
:1018C000331FEA95D1F7082919292A293B29C0266F
:1018D000D126E226F3260A891B892C893D898A8C28
:1018E0009B8CAC8CBD8C082519252A253B258D8029
:1018F0009E80AF80B884082119212A213B218A8843
:101900009B88AC88BD88082519252A253B25C00E53
:10191000D11EE21EF31E4C0C5D1C6E1C7F1CE98563
:10192000EF70F0E0B296EE0FFF1FEE0FFF1F26964E
:10193000AEACBFAC2697EA0DFB1D00811181228160
:101940003381400E511E621E731E840D951DA61D0F
:10195000B71D8A019B01EEE1000F111F221F331FEB
:10196000EA95D1F72A013B01F2E076946794579407
:101970004794FA95D1F704291529262937296A01B0
:101980007B01E3E1CC0CDD1CEE1CFF1CEA95D1F7DA
:101990004A015B01FDE0B694A79497948794FA9569
:1019A000D1F7C828D928EA28FB280C251D252E2583
:1019B0003F256A017B01E6E1F694E794D794C7944A
:1019C000EA95D1F74A015B01FAE0880C991CAA1C40
:1019D000BB1CFA95D1F7C828D928EA28FB28C026CD
:1019E000D126E226F3260A851B852C853D858E842B
:1019F0009F84A888B988082919292A293B29042302
:101A00001523262337234A845B846C847D844820F5
:101A100059206A207B2004291529262937290C0DF5
:101A20001D1D2E1D3F1DAE88BF88C88CD98CA80EE9
:101A3000B91ECA1EDB1E2496ACAEBDAECEAEDFAE66
:101A400024976C017D01C00ED11EE21EF31EC982D7
:101A5000DA82EB82FC8209850F5F0987003409F086
:101A6000C9C02696EEADFFAD2697E859FF4F88A175
:101A700099A1AAA1BBA18C0D9D1DAE1DBF1D808388
:101A80009183A283B3832696EEADFFAD2697E459EA
:101A9000FF4F8CA19DA1AEA1BFA1480F591F6A1F86
:101AA0007B1F40835183628373832696EEADFFAD27
:101AB0002697E059FF4F88A599A5AAA5BBA58E84B6
:101AC0009F84A888B988880D991DAA1DBB1D808395
:101AD0009183A283B3832696EEADFFAD2697EC5893
:101AE000FF4F8CA59DA5AEA5BFA5AA84BB84CC84C1
:101AF000DD848A0D9B1DAC1DBD1D80839183A28357
:101B0000B3832696EEADFFAD2697E858FF4F88A920
:101B100099A9AAA9BBA92496CCACDDACEEACFFACCC
:101B200024978C0D9D1DAE1DBF1D80839183A283C4
:101B3000B3832696EEADFFAD2697E458FF4F8CA9F0
:101B40009DA9AEA9BFA9ED80FE800F8118858E0DDD
:101B50009F1DA01FB11F80839183A283B38326960C
:101B6000EEADFFAD2697E058FF4F88AD99ADAAAD19
:101B7000BBAD0A8D1B8D2C8D3D8D800F911FA21F3B
:101B8000B31F80839183A283B3832696EEADFFAD0E
:101B90002697EC57FF4F8CAD9DADAEADBFAD2A89FA
:101BA0003B894C895D89820F931FA41FB51F8083D9
:101BB0009183A283B38326964EAD5FAD269748539B
:101BC0005F4FDA011C92CB5BDF4FCDBFDEBFDF91F1
:101BD000CF911F910F91FF90EF90DF90CF90BF902A
:101BE000AF909F908F907F906F905F904F903F90BD
:101BF0002F90089589858F700985003108F4D6C02B
:101C000014E0819FC001112426962EAD3FAD26978A
:101C1000820F931FF101EF70FF27B296EE0FFF1FA7
:101C2000EE0FFF1FE20FF31FDC01A857BF4FAE8B73
:101C3000BF8BC080D180E280F3800D911D912D91EA
:101C40003C910C0D1D1D2E1D3F1DF1013596EF70B1
:101C5000FF27B296EE0FFF1FEE0FFF1F26968EACEA
:101C60009FAC2697E80DF91D4080518062807380FB
:101C7000730162018FE0CC0CDD1CEE1CFF1C8A9509
:101C8000D1F7D301C201E1E1B695A7959795879564
:101C9000EA95D1F7C82AD92AEA2AFB2A5301420138
:101CA000FDE0880C991CAA1CBB1CFA95D1F7D30146
:101CB000C201E3E1B695A79597958795EA95D1F787
:101CC00088299929AA29BB294601570188269926DE
:101CD000AA26BB26FAE07694679457944794FA951F
:101CE000D1F784249524A624B72475016401C00E7D
:101CF000D11EE21EF31EF1013897EF70FF27B29656
:101D0000EE0FFF1FEE0FFF1F2696AEACBFAC26975F
:101D1000EA0DFB1D80809180A280B38024013501F3
:101D2000B7E07694679457944794BA95D1F7D50164
:101D3000C40119E1880F991FAA1FBB1F1A95D1F77B
:101D4000482A592A6A2A7B2A950184018EE0000FCD
:101D5000111F221F331F8A95D1F7D501C401E2E17B
:101D6000B695A79597958795EA95D1F7802B912BF6
:101D7000A22BB32B93018201082719272A273B277F
:101D8000F3E0B694A79497948794FA95D1F7082531
:101D900019252A253B250C0D1D1D2E1D3F1DAE8925
:101DA000BF890D931D932D933C9313970E8D1F8D1B
:101DB0000C5F1F4F0E8F1F8F1FEF211A310A8A856C
:101DC0009B85AC85BD858E8B9F8BA88FB98F8E84AC
:101DD0009F84A888B9888A869B86AC86BD864E87F4
:101DE0005F87688B798B49815A816B817C818A8975
:101DF0009B89AC89BD89AA8CBB8CCC8CDD8CAA8AD2
:101E0000BB8ACC8ADD8ACD80DE80EF80F884CA8EE2
:101E1000DB8EEC8EFD8E2496ECACFDAC0EAD1FADD2
:101E20002497ED82FE820F831887F9CC0F931F93BE
:101E3000CF93DF93EC0160E80E942D0B8E010853D5
:101E40001F4FF801808160E0883321F0CE010E94AD
:101E50002D0BF7CFCE010E942D0B60E0CE010E942A
:101E60002D0B60E0CE010E942D0B6C817D818E8157
:101E70009F812DE196958795779567952A95D1F75E
:101E8000CE010E942D0B6C817D818E819F8135E179
:101E900096958795779567953A95D1F7CE010E94EB
:101EA0002D0B6C817D818E819F814DE0969587956C
:101EB000779567954A95D1F7CE010E942D0B6C81DD
:101EC0007D818E819F8155E0969587957795679561
:101ED0005A95D1F7CE010E942D0B6C81660F660FCB
:101EE000660FCE010E942D0BFE01E859FF4FC85727
:101EF000DF4F3E2F2F2F61917191819191910E941F
:101F0000C639DF0114976D937D938D939C9313973E
:101F1000EC17FD0781F7832F922FDF91CF911F914F
:101F20000F910895262FFC014481558166817781A8
:101F30004F5F5F4F6F4F7F4F448355836683778337
:101F4000622F0E942D0B81E090E00895982F8FEB77
:101F5000890F8A31B0F08FE9890F8A3118F489EB43
:101F6000890F089580ED890F8A3010F484E0F8CF4E
:101F70009B3221F09F3221F08FEF08958EE3089578
:101F80008FE30895FC01DB0111962C91119730E04D
:101F900084E0359527958A95E1F723708C91880F19
:101FA000880F280F208312962C91129730E03595D8
:101FB0002795359527952F7011968C91119730E1C3
:101FC000839FC0011124280F218312968C911297B0
:101FD00090E4899F9001112413968C91820F828343
:101FE0000895DC01FB018081869586958C93208184
:101FF00080E1289F900111242073818182958F7048
:10200000280F11962C931197218184E0289F90012D
:1020100011242C7382818295869586958370280F72
:1020200012962C93129782818F7313968C93089536
:10203000DC01ED91FC910088F189E02D23E030E096
:10204000099490E080E00895CF93DF93EC0188E05D
:1020500090E00E949D37009749F0FC0110821182A8
:1020600026E030E022833383C483D583DF91CF9190
:102070000895CF92DF92EF92FF920F931F93CF9329
:10208000DF93EC01892B29F18A819B8184309105B2
:1020900049F08530910509F43FC00297D1F48C8155
:1020A0009D8115C00C811D81F12CE12CF8018281EC
:1020B000938126813781E216F306B0F00E94393809
:1020C000D80114968D919C910E943938C8010E94C4
:1020D0003938CE01DF91CF911F910F91FF90EF9092
:1020E000DF90CF900C9439386701CC0CDD1C8C0D3F
:1020F0009D1DDC018D919C910E943938D801149668
:10210000ED91FC91EC0DFD1D808191810E943910B3
:10211000BFEFEB1AFB0ACACFEC80FD8010E000E0B5
:10212000D70112968D919C91139714962D913C9105
:102130000217130720F00E943938C701C8CF980151
:10214000220F331F820F931FFC01808191810E9417
:1021500039100F5F1F4FE4CF90ED980F9A3028F49D
:10216000082E000C990BC09708959FE9980F9630A0
:1021700030F4082E000C990B8755910908959FEBB8
:10218000980F963028F4082E000C990BC7970895E5
:102190008FEF9FEF0895BF92CF92DF92EF92FF9261
:1021A0000F931F93CF93DF93FC018081882309F461
:1021B00048C0E180EE2009F444C0F280FF2009F419
:1021C00040C0B380BB20E9F18B010E94AC10EC0150
:1021D0008E2D0E94AC106C018F2D0E94AC107C01E2
:1021E0008B2D0E94AC10CF3FDC0759F1EFEFCE16DC
:1021F000DE0639F1FFEFEF16FF0619F18F3F980762
:1022000001F1DC2FCC27D295D07FDC2CCC24CC293B
:10221000DD298C2B9D2B44E0EE0CFF1C4A95E1F749
:102220008E299F29F8018083918381E090E0DF91DE
:10223000CF911F910F91FF90EF90DF90CF90BF90C3
:10224000089590E080E0F3CFCF93DF9326E0289FBE
:10225000E001299FD00D1124C35BD64D888199815F
:10226000009741F00E9439381A821B821882198225
:102270001C821D82DF91CF910895CF93DF93EC01F3
:1022800088819981009711F00E943938188219824B
:102290001C821D821A821B82DF91CF910895FC015E
:1022A00080819181009711F00C9439380895CF9373
:1022B000DF93EC0182E00E949A098D2F0E949A0917
:1022C0008C2FDF91CF910C949A09CF92DF92EF92ED
:1022D000FF920F93FC01C12CB9E0DB2EBDE3EB2E86
:1022E000F12CC082D182E282F3821482158281E0D5
:1022F00090E086839783C0900328D0900428E090D4
:102300000528F0900628F694E794D794C79490E0B7
:102310004C155D056E057F0540F4F694E794D7945F
:10232000C7949F5F9630A1F797E004600187892FDB
:102330008095A82FA170B0E084E0AA0FBB1F8A95FA
:10234000E1F791629A2B80E0232B09F480E4982B2B
:1023500090870F91FF90EF90DF90CF9008950F93AB
:102360001F93CF93DF93CDB7DEB72A97CDBFDEBFE4
:102370008C01FC01878181110CC0108611861286A8
:1023800013861486158616861786108A118A81E0B0
:1023900087838091E305F8019681892B8093E3057B
:1023A00061E070E083810E94E00361E070E0F80189
:1023B00084810E94E0038091C10884608093C108F9
:1023C0008091C00881628093C00840910D2950918E
:1023D0000E2960910F2970911029009111292091E7
:1023E000132930911429CE0101960E946511998517
:1023F0008A859093C0088093C1082A96CDBFDEBF1E
:10240000DF91CF911F910F910895CF9383E2809335
:10241000012884E280930228C1E0C0930E288DE158
:10242000809300288BEC98E20E94AF1161E070E08D
:1024300083E20E94E00370E060E084E20E94E00337
:1024400061E070E08DE10E94E00361E070E08CE10A
:102450000E94AA0361E070E08CE10E940F0461E039
:1024600070E083E20E94520461E070E08DE10E941E
:1024700052046AE070E080E090E00E94230570E082
:1024800060E08DE10E9452046EEE72E080E090E028
:102490000E94230570E060E08CE10E940F0470E070
:1024A00060E08CE10E94AA03C0933128CF91089587
:1024B0005F926F927F928F929F92AF92BF92CF92D4
:1024C000DF92EF92FF920F931F93CF93DF93CDB7DD
:1024D000DEB76297CDBFDEBF3C010B871C872D871F
:1024E0003E87042F4F87588B698B7A8B29893A89CD
:1024F0004B855C856D857E85CE0101960E946511B8
:1025000019855A84D30118968C91882319F081FF7C
:1025100018C0F8941093C0085092C1086296CDBFBD
:10252000DEBFDF91CF911F910F91FF90EF90DF9071
:10253000CF90BF90AF909F908F907F906F905F9063
:10254000089580FFE7CFF30182849384A484B58447
:10255000C12CD12C7601B0E09401A501B601C701D0
:10256000A0E00E94F239A9F1217030E040E050E093
:1025700060E070E080E090E00E94F239E9F090E0E5
:1025800080E0B03370F48B2F869586958695F0E2C7
:102590008F9FC0011124805F9B4F2B2F2770820FCC
:1025A000911DFC01408193012B0F311DF901428BDC
:1025B000FC012081287F20839401A501B601C70179
:1025C00001E00E94D73949015A016B017C01BF5FCC
:1025D000C3CFD3011E968D909D90AD90BC90519726
:1025E000C12CD12C7601B0E29401A501B601C7013E
:1025F000A0E00E94F23909F48DCF217030E040E074
:1026000050E060E070E080E090E00E94F239E9F094
:1026100090E080E0B03370F48B2F86958695869598
:10262000E0E28E9FC0011124805F9B4F2B2F27700B
:10263000820F911DFC01408193012B0F311DF90187
:10264000428BFC012081287F20839401A501B601E3
:10265000C70101E00E94D73949015A016B017C0191
:10266000BF5FC2CFCF92DF92EF92FF920F931F9383
:10267000CF93DF93CDB7DEB72897CDBFDEBF80E025
:10268000082F1D821E8281E0682F12E12AE730E0C8
:1026900040E05E8170E08BEC98E20E94581270E09E
:1026A00060E0809101280E9452040E9453056B0152
:1026B0007C01809102288932B8F00E9453056C1980
:1026C0007D098E099F09653071058105910588F3A3
:1026D0002896CDBFDEBFDF91CF911F910F91FF9064
:1026E000EF90DF90CF9008950E94CF04019781F37F
:1026F000E4CFCF92DF92EF92FF920F931F93CF938D
:10270000DF9300D000D0CDB7DEB77C0186E08E9D90
:1027100080018F9D100D1124035B164DF8018481FB
:102720009581892B09F08AC080819181892B59F488
:1027300080E490E00E949D37F80182839383808338
:1027400091831482158280E490E089839A8386E0E5
:102750008E9DF0018F9DF00D1124E35BF64DC0803E
:10276000D180EC828CE10E94CF04892B09F466C0F1
:1027700080913128811102C00E9405120E949109A6
:102780000E94321362E085E40E94A80940E061E003
:1027900070E0CE0104960E94BF0941E062E070E063
:1027A000CE0101960E94BF090E942A0A0E94E30AF4
:1027B0000E9491090E9432131B820E94390A892BC0
:1027C00049F1CE0103960E94200A8B81853C11F5C8
:1027D0000E942A0A8823D1F08FEF0E949A09182FAD
:1027E0008FEF0E949A09912F89839A83860129810C
:1027F0003A81C8018C199D098217930738F48FEF2D
:102800000E949A09F80181938F01F1CFCE010396BE
:102810000E94200A0E94E30A89819A81009771F040
:1028200026E02E9DF0012F9DF00D1124E35BF64D67
:1028300020813181228333838483958386E08E9D3A
:10284000F0018F9DF00D1124E35BF64D848195819D
:102850002496CDBFDEBFDF91CF911F910F91FF90E6
:10286000EF90DF90CF900895CF93DF93FC01278501
:102870003089121613062CF08FEF9FEFDF91CF9166
:102880000895C485D0E0CE010E947913892BA1F36D
:1028900086E08C9FF0018D9FF00D1124E35BF64DD7
:1028A0000280F381E02D808190E0E8CFCF93DF9329
:1028B000FC01C485D0E0CE010E947913892B81F000
:1028C00086E08C9FF0018D9FF00D1124E35BF64DA7
:1028D0000280F381E02D808190E0DF91CF91089517
:1028E0008FEF9FEFFACFFC0184858F3F19F090E0C6
:1028F0000C94791390E080E008955F926F927F923C
:102900008F929F92AF92BF92CF92DF92EF92FF92FF
:102910000F931F93CF93DF93CDB7DEB72897CDBF2B
:10292000DEBF888719821A821B821C826A837B839E
:102930004D835E8380913128811102C00E9405126F
:102940000E9491090E94321361E08AE30E94A80963
:1029500041E061E0CE0108960E94F0090E942A0A37
:102960000E942A0A0E94E30A0E9491090E943213DF
:102970001F820E94390A892BE9F1CE0107960E9435
:10298000200A8F818A3BB1F50E942A0A582E88239B
:1029900089F18E010F5F1F4FB12CA12C682E712C75
:1029A000A614B70404F58FEF0E949A09F8018083FA
:1029B000F12CE12CC82ED12CEC14FD0474F4F80198
:1029C000818092808E0C9F1C8FEF0E949A09F401E7
:1029D0008083FFEFEF1AFF0AEFCF8FEFA81AB80A34
:1029E0000D5F1F4FDDCFE2E05E1204C0CE010796FF
:1029F0000E94200A0E94E30A2896CDBFDEBFDF9125
:102A0000CF911F910F91FF90EF90DF90CF90BF90EB
:102A1000AF909F908F907F906F905F900895CF932D
:102A2000DF93CDB7DEB72697CDBFDEBF19821A82FE
:102A30001B821C821D821E82AE014B5F5F4FBE0156
:102A40006F5F7F4FFC0184850E947D148D8190E033
:102A5000982F88272E81820F911D2696CDBFDEBF2D
:102A6000DF91CF910895CF93DF93CDB7DEB726974F
:102A7000CDBFDEBF19821A821B821C821D821E827C
:102A8000AE014B5F5F4FBE016F5F7F4FFC018485DE
:102A90000E947D148D8190E0982F88272E81820FCF
:102AA000911D2696CDBFDEBFDF91CF910895CF93C4
:102AB000DF9300D0CDB7DEB780913128811102C0FD
:102AC0000E9405120E9491090E94321360E08FE378
:102AD0000E94A8090E94E30A0E9491090E943213F1
:102AE0008FEF89831A82AE014E5F5F4FBE016F5F29
:102AF0007F4F8FE30E94510A0E94E30A89810F9061
:102B00000F90DF91CF910895CF93DF9300D01F9264
:102B1000CDB7DEB78B8380913128811102C00E942E
:102B200005120E9491090E94321361E08FE20E9417
:102B3000A80941E061E0CE0103960E94F0090E94DD
:102B40002A0A0E942A0A0E94E30A0E9491090E940E
:102B5000321319821A82AE014E5F5F4FBE016F5F62
:102B60007F4F8FE20E94510A0E94E30A89812396D7
:102B7000CDBFDEBFDF91CF910895CF93DF93FC01EE
:102B800024852F3FB9F0EC010190F081E02D008405
:102B9000F185E02D0995892B21F081E0DF91CF911E
:102BA00008958C858F3F41F48C8590E00E9424111C
:102BB0008FEF8C8780E0F2CF0E9484158430A0F3E1
:102BC0009BEF980F933080F38A3039F7EDCFCF9396
:102BD000DF9300D01F92CDB7DEB78B838091312871
:102BE000811102C00E9405120E9491090E943213B5
:102BF00061E08EE20E94A80941E061E0CE01039607
:102C00000E94F0090E942A0A0E942A0A0E94E30AEE
:102C10000E9491090E94321319821A82AE014E5FFE
:102C20005F4FBE016F5F7F4F8EE20E94510A0E948C
:102C3000E30A2396CDBFDEBFDF91CF910895CF93F6
:102C4000DF93EC018C858F3F41F00E94E7158C8566
:102C500090E00E9424118FEF8C87DF91CF9108952F
:102C60000F931F93CF93DF93EC018C858F3FD9F0A7
:102C70000E94E71502E310E08C858F3F71F00E94FF
:102C80008415882351F00150110939F064E670E091
:102C900080E090E00E942305EFCF8C8590E00E94B9
:102CA00024118FEF8C87DF91CF911F910F910895A1
:102CB000EF92FF920F93CF93DF93CDB7DEB72897B4
:102CC000CDBFDEBF6B837C838D839E837A012F8390
:102CD000088780913128811102C00E9405120E944C
:102CE00091090E94321364E08DE20E94A80940E03D
:102CF00064E0CE0103960E94F009C7010E945711BB
:102D000040E061E0CE0107960E94F00941E061E0F9
:102D1000CE0108960E94F0090E94E30A0E949109E0
:102D20000E94321319821A82AE014E5F5F4FBE01BC
:102D30006F5F7F4F8DE20E94510A0E94E30A28963E
:102D4000CDBFDEBFDF91CF910F91FF90EF9008953F
:102D5000EF92FF920F931F93CF93DF93EC018B01C0
:102D60007A018C858F3F19F40E9457158C872C852A
:102D700090E080E02F3F59F0F801628173818481F7
:102D8000958101E0A7010E94581681E090E0DF9153
:102D9000CF911F910F91FF90EF900895EF92FF92C6
:102DA0000F931F93CF93DF9300D01F92CDB7DEB761
:102DB0007B018A01FC0184858B83809131288111FC
:102DC00002C00E9405120E9491090E94321362E023
:102DD00086E40E94A80940E061E070E0CE0103961D
:102DE0000E94BF0941E0B801C7010E94BF097801F4
:102DF000F9E0EF0EF11CC70183709927892B31F0A0
:102E00000E942A0A8FEFE81AF80AF5CF0E94E30A17
:102E10000E9491090E9432131A821982AE014F5FFB
:102E20005F4FBE016E5F7F4F86E40E949B0A0E9447
:102E3000E30AC8012396CDBFDEBFDF91CF911F917A
:102E40000F91FF90EF900895CF93DF9300D01F92E2
:102E5000CDB7DEB7FC0184858B8380913128811149
:102E600002C00E9405120E9491090E94321361E083
:102E700089E30E94A80941E061E0CE0103960E9427
:102E8000F0090E942A0A0E942A0A0E94E30A0E946C
:102E900091090E9432131A821982AE014F5F5F4F6F
:102EA000BE016E5F7F4F89E30E949B0A0E94E30A86
:102EB0008981882321F081E09A81913009F080E0B6
:102EC00090E02396CDBFDEBFDF91CF910895AF9202
:102ED000BF92CF92DF92FF920F931F93CF93DF9316
:102EE000CDB7DEB72897CDBFDEBF8C015B016A018D
:102EF000DC011C968C911C978F3F39F0ED91FC9171
:102F00000288F389E02DC80109950E945715F82E13
:102F1000BFEF80E0FB1609F44FC0F5018281938179
:102F2000A481B58189839A83AB83BC83F88683E0CF
:102F30008D8380913128811102C00E9405120E9468
:102F400091090E94321364E088E20E94A80940E0DF
:102F500064E0CE0101960E94F009C6010E9457115B
:102F600040E061E0CE0108960E94F00941E061E096
:102F7000CE0105960E94F0090E94E30A0E94910981
:102F80000E9432131F821E82AE014A5F5F4FBE0154
:102F9000695F7F4F88E20E94510A0E94E30AD801CC
:102FA0001C96FC921C971D96CD92DC921E971F9644
:102FB0001D921C92509781E02896CDBFDEBFDF9115
:102FC000CF911F910F91FF90DF90CF90BF90AF9066
:102FD0000895CF92DF92FF920F931F93CF93DF93C9
:102FE00000D000D0CDB7DEB78C016B01DC011C96A0
:102FF0008C911C978F3F39F0ED91FC910288F389F9
:10300000E02DC80109950E945715F82EBFEF80E00A
:10301000FB16E1F1FC8281E08983809131288111E6
:1030200002C00E9405120E9491090E94321363E0BF
:1030300088E20E94A809C6010E94571140E061E0A1
:10304000CE0104960E94F00941E061E0CE010196B4
:103050000E94F0090E942A0A0E94E30A0E94910934
:103060000E9432131B821A82AE014E5F5F4FBE0177
:103070006D5F7F4F88E20E94510A0E94E30AF801C7
:10308000F486C586D6861786108A81E02496CDBF41
:10309000DEBFDF91CF911F910F91FF90DF90CF9016
:1030A0000895CF92DF92EF92FF920F931F93CF93E9
:1030B000DF93CDB7DEB72597CDBFDEBF6C017B01B7
:1030C0008A01FC0184858F3FA1F481E090E0F60144
:1030D00082839383F12CE12CC7012596CDBFDEBFFF
:1030E000DF91CF911F910F91FF90EF90DF90CF90E4
:1030F0000895452B51F38D8380913128811102C0B1
:103100000E9405120E9491090E94321362E084E439
:103110000E94A80940E061E070E0CE0105960E949F
:10312000BF0941E0B801C7010E94BF09075F1F4FF7
:10313000C80183709927892B29F00E942A0A0F5F02
:103140001F4FF6CF0E94E30A0E9491090E9432139A
:1031500019821A821B82AE014D5F5F4FBE016F5F05
:103160007F4F84E40E949B0A0E94E30AE980FA8070
:10317000E114F10409F4A9CFF60184858C831B8244
:10318000198210E000E080913128811102C00E9474
:1031900005120E9491090E94321361E08AE20E94A6
:1031A000A80941E061E0CE0104960E94F0090E9466
:1031B0002A0A0E942A0A0E94E30A0E9491090E9498
:1031C0003213AE014F5F5F4FBE016D5F7F4F8AE2EA
:1031D0000E94510A0E94E30A8B81811113C00F5F84
:1031E0001F4F64E670E080E090E00E9423058B8131
:1031F000811103C00931110530F20931110509F4BB
:1032000064CF6ACF10E000E0F2CFFB010190002014
:10321000E9F73197AF01461B570BDC01ED91FC91AB
:103220000280F381E02D09948F929F92AF92BF921A
:10323000EF92FF920F931F93CF93DF93CDB7DEB73B
:10324000A197CDBFDEBF7C01FA01CB0119A22230CC
:1032500008F42AE08E010F5D1F4F822E912CB12CB5
:10326000A12CBF01A50194010E948539F901CA0171
:103270006A30F4F4605DD8016E938D01232B242B0A
:10328000252B79F790E080E0109721F0BD01C70170
:103290000E940519A196CDBFDEBFDF91CF911F918E
:1032A0000F91FF90EF90BF90AF909F908F900895F7
:1032B000695CE1CF8F929F92AF92BF92CF92DF92E3
:1032C000EF92FF920F931F93CF93DF937C01EB015B
:1032D0006C0182E0C80ED11C4701E5E08E0E911C06
:1032E00010E000E0F60141916F0150E070E060E015
:1032F0002AE0CE010E9414195C01E881F981019055
:10330000F081E02D6EE2CE0109958A0D9B1D080F1C
:10331000191FC814D90431F7F701458150E070E056
:1033200060E02AE0CE010E941419800F911FDF9106
:10333000CF911F910F91FF90EF90DF90CF90BF90B2
:10334000AF909F908F9008950F931F93CF93DF932B
:103350008C01D0E0C0E06115710519F00E940519DB
:10336000EC016DEF7DEBC8010E9405198C0F9D1FCC
:10337000DF91CF911F910F910895AF92BF92CF929D
:10338000DF92EF92FF920F93CF93DF93EC017B01DB
:103390005A018C858F3F39F0E881F9810488F589DD
:1033A000E02DCE0109950E945715282F8C878F3F5D
:1033B00009F43FC0F701628173818481958102E045
:1033C000A5010E9458160E9453056B017C01E881FB
:1033D000F9810688F789E02DCE010995811112C087
:1033E0000E9453056C197D098E099F09603177424F
:1033F0008105910538F461E070E080E090E00E9482
:103400002305E5CFE881F9810688F789E02DCE0113
:10341000099521E090E0811101C020E0822FDF9129
:10342000CF910F91FF90EF90DF90CF90BF90AF9032
:10343000089560E07EEB82E398E20E94A41980E0A8
:1034400090E0EDCF0F931F93CF93DF93CDB7DEB70F
:103450002697CDBFDEBF2FE43DEB29833A83FB01E6
:1034600002811381248135810B831C832D833E834C
:10347000BE016F5F7F4F0E94BD192696CDBFDEBF94
:10348000DF91CF911F910F910895AF92BF92CF928C
:10349000DF92EF92FF920F93CF93DF93EC017B01CA
:1034A0005A018C858F3F39F0E881F9810488F589CC
:1034B000E02DCE0109950E945715282F8C878F3F4C
:1034C00009F43FC0F701628173818481958100E036
:1034D000A5010E9458160E9453056B017C01E881EA
:1034E000F9810688F789E02DCE010995811112C076
:1034F0000E9453056C197D098E099F09603177423E
:103500008105910538F461E070E080E090E00E9470
:103510002305E5CFE881F9810688F789E02DCE0102
:10352000099521E090E0811101C020E0822FDF9118
:10353000CF910F91FF90EF90DF90CF90BF90AF9021
:10354000089560E07EEB82E398E20E94A41980E097
:1035500090E0EDCFEF92FF920F931F93CF93DF9305
:1035600000D0CDB7DEB77C0180913128811102C037
:103570000E9405120E9491090E94321361E084E3C7
:103580000E94A809F70101900020E9F73197BF01D7
:103590006E197F0941E0C7010E94F009F70101900F
:1035A0000020E9F78F010E191F090C5F1F4FC8019A
:1035B00083709927892B29F00E942A0A0F5F1F4FD9
:1035C000F6CF0E94E30A0E9491090E9432131982E9
:1035D0001A82AE014E5F5F4FBE016F5F7F4F84E383
:1035E0000E94510A182F0E94E30A112329F011E0CA
:1035F0008981813009F010E0812F0F900F90DF91C9
:10360000CF911F910F91FF90EF9008958F929F920D
:10361000AF92BF92EF92FF920F931F93CF93DF93DE
:10362000CDB7DEB72897CDBFDEBF7C015B014A0175
:10363000DC011C968C911C978F3F39F0ED91FC9129
:103640000488F589E02DC70109950E945715F701F7
:1036500084878F3F09F493C0F50101900020E9F7BA
:1036600031978F010A191B09888782E08D8319829F
:103670001A821B821C8280913128811102C00E9413
:1036800005120E9491090E94321365E08DE20E94AA
:10369000A80940E0602FC5010E94F00940E064E005
:1036A000CE0101960E94F009C4010E94571140E02A
:1036B00061E0CE0108960E94F00941E061E0CE0190
:1036C00005960E94F00911270F5E1F4FC8018370F5
:1036D0009927892B29F00E942A0A0F5F1F4FF6CFE6
:1036E0000E94E30A0E9491090E9432131F821E82E7
:1036F000AE014A5F5F4FBE01695F7F4F8DE20E945E
:10370000510A0E94E30A0E9453054B015C01D70154
:10371000ED91FC910688F789E02DC701099581118B
:1037200012C00E945305681979098A099B09603102
:1037300077428105910538F461E070E080E090E027
:103740000E942305E4CFD701ED91FC910688F7890B
:10375000E02DC701099521E090E0811101C020E032
:10376000822F2896CDBFDEBFDF91CF911F910F91A1
:10377000FF90EF90BF90AF909F908F90089560E082
:103780007EEB82E398E20E94A41980E090E0E9CF0A
:103790000C94061BCF92DF92EF92FF920F931F9330
:1037A000CF93DF937C016B018A010E94791300970C
:1037B000F9F0801791070CF48C0186E08E9DE001F2
:1037C0008F9DD00D1124C35BD64D6A817B81A801EA
:1037D000C6010E94D13A8A819B81800F911F8A8302
:1037E0009B838C819D81801B910B8C839D83C80161
:1037F000DF91CF911F910F91FF90EF90DF90CF90CD
:103800000895CF93DF93FC012785308912161306A4
:103810008CF4EC01848590E00E94CA1B18161906EE
:1038200034F42F853889281B390B2F87388BDF918B
:10383000CF91089590E080E0FACF0F931F93CF933C
:10384000DF931F92CDB7DEB7FC01278530891216B2
:103850001306C4F48C01848541E050E0BE016F5F23
:103860007F4F90E00E94CA1BF801878590890197DD
:103870008787908B898190E00F90DF91CF911F9186
:103880000F9108958FEF9FEFF7CF0F931F93CF9373
:10389000DF9300D000D0CDB7DEB78C01F8012785CB
:1038A0003089C90101978787908B8485232B49F044
:1038B00041E050E0BE016F5F7F4F90E00E94CA1B65
:1038C000EDCF8C838CE10E94CF04892BC9F18091CC
:1038D0003128811102C00E9405120E9491090E94A4
:1038E000321361E08BE20E94A80941E061E0CE0161
:1038F00004960E94F0090E942A0A0E942A0A0E9445
:10390000E30A0E9491090E9432131B8219821A82D3
:10391000AE014D5F5F4FBE016F5F7F4F8BE20E9434
:10392000510A0E94E30A89819A81F8018787908B66
:103930002496CDBFDEBFDF91CF911F910F910895E7
:1039400090E080E0F2CFFC01848590E00C94CA1BEB
:103950000F931F93CF93DF931F92CDB7DEB78C01E8
:10396000DC01ED91FC910084F185E02D0995892B16
:1039700091F0F801848541E050E0BE016F5F7F4F18
:1039800090E00E94CA1B898190E00F90DF91CF9157
:103990001F910F9108958FEF9FEFF7CFEF92FF9256
:1039A0000F931F93CF93DF93CDB7DEB72B97CDBF88
:1039B000DEBF7C018FEF8B838C838D838E83809120
:1039C0003128811102C00E9405120E9491090E94B3
:1039D000321360E085E30E94A8090E94E30A0E9476
:1039E00091090E9432131B86AE01455F5F4FBE01F5
:1039F000695F7F4F85E30E94510A8C01892BB9F0E2
:103A00004F81588569857A85F701428353836483A2
:103A1000758391E080E00B811C812D813E814017F0
:103A200051076207730709F490E0092F182F0E94CD
:103A3000E30AC8012B96CDBFDEBFDF91CF911F9166
:103A40000F91FF90EF900895CF92DF92EF92FF9247
:103A50000F931F93CF93DF93CDB7DEB72C97CDBFD6
:103A6000DEBF8C01CB016A012FE4E22E2DEBF22E9A
:103A7000EF82F88619861A861B861C860E94AA1A6F
:103A800081110EC090E080E02C96CDBFDEBFDF91AB
:103A9000CF911F910F91FF90EF90DF90CF900895FD
:103AA000CE0107960E94CE1C892B61F3D801ED91BF
:103AB000FC910684F785E02DE982FA8289859A8552
:103AC000AB85BC858B839C83AD83BE83A601BE0181
:103AD0006F5F7F4FC8010995D7CFCF92DF92EF92EA
:103AE000FF920F931F93CF93DF93CDB7DEB72C9741
:103AF000CDBFDEBF8C01CB016A012FE4E22E2DEB9E
:103B0000F22EEF82F88619861A861B861C860E9482
:103B1000AA1A81110EC090E080E02C96CDBFDEBFC6
:103B2000DF91CF911F910F91FF90EF90DF90CF9099
:103B30000895CE0107960E94CE1C892B61F3D8010F
:103B4000ED91FC910488F589E02DE982FA8289855E
:103B50009A85AB85BC858B839C83AD83BE83A60190
:103B6000BE016F5F7F4FC8010995D7CF0F931F9399
:103B7000CF93DF93CDB7DEB72697CDBFDEBF8C01E5
:103B8000FB0119821A821B821C821D821E82AE01D9
:103B90004B5F5F4FBE016F5F7F4F84850E947D1436
:103BA0008FE49DEBF8018083918389819A81AB81B9
:103BB000BC8182839383A483B583C8012696CDBF3D
:103BC000DEBFDF91CF911F910F9108950F931F9347
:103BD000CF93DF93CDB7DEB72697CDBFDEBF8C0185
:103BE000FB0119821A821B821C821D821E82AE0179
:103BF0004B5F5F4FBE016F5F7F4F84850E947D14D6
:103C00008FE49DEBF8018083918389819A81AB8158
:103C1000BC8182839383A483B583C8012696CDBFDC
:103C2000DEBFDF91CF911F910F9108952F923F92A8
:103C30004F925F926F927F928F929F92AF92BF92BC
:103C4000CF92DF92EF92FF920F931F93CF93DF9368
:103C500000D000D0CDB7DEB7DC018D919C911197DB
:103C6000FC012081223219F0F12CE12C45C03C01ED
:103C7000FFEF6F1A7F0A6D927C921197ED91FC9184
:103C800011972081223209F04EC03196ED93FC93BA
:103C90009F01281B390BC901290132E0431A510841
:103CA00001970E949D374C01009709F465C08C0173
:103CB00063017AE0372EE8E02E2EF601808188231A
:103CC00039F09601261937092415350508F443C043
:103CD000F8011082081919090F5F1F4FC8010E94CF
:103CE0009D377C01009709F447C0A801B4010E94E8
:103CF000D13AC4010E943938C7012496CDBFDEBF36
:103D0000DF91CF911F910F91FF90EF90DF90CF90B7
:103D1000BF90AF909F908F907F906F905F904F90EB
:103D20003F902F900895222309F49ECF2C3549F01F
:103D30002D913C9111972F5F3F4F2D933C931197FD
:103D40009DCF9F012F5F3F4F2D933C931197218172
:103D50002111EECF89CF8C3509F0BEC056014FEF4F
:103D6000A41AB40AF60181818636F1F184F48F3207
:103D700091F134F4823279F1C4010E94393874CF60
:103D80008C3549F18236C1F7F801208226C082378E
:103D900079F12CF48E3681F7F80130821EC0843719
:103DA00049F1853749F7560132E0A30EB11CBE0137
:103DB0006D5F7F4FC5010E94CB10892BE9F2EB802C
:103DC000FC8040E8E416F104B8F4F801E08233E046
:103DD000A30EB11C02C0F80180830F5F1F4F650165
:103DE000FFEFCF1ADF0A69CF2CE0F8012083F5CF6F
:103DF0002DE0FBCF29E0F9CFC701E114F8E0FF0681
:103E000078F466E0969587956A95E1F7806CF801FD
:103E100080838E2D8F73806881830F5F1F4FD7CF74
:103E2000985D8115F8E09F07B0F08F2D82958F7017
:103E3000806EF8018083C70156E0969587955A9564
:103E4000E1F78F73806881838E2D8F738068828302
:103E50000E5F1F4FBCCF8115944008F08DCFF60147
:103E600086818C3509F088CF5601F8E0AF0EB11C81
:103E7000F6018781853709F07FCFBE016F5F7F4FE5
:103E8000C5010E94CB10892B09F476CF89819A81D4
:103E90009C013C5D2115344008F06ECFFE2CEE24D1
:103EA000FF0CFF0C93708E299F2920EFF8012083CF
:103EB000292F22952F70206821839C0146E036959A
:103EC00027954A95E1F72F73206822838F738068C6
:103ED00083830D5F1F4F7BCF803208F44DCFF801F5
:103EE000808356017ACFCF92DF92EF92FF920F93A9
:103EF0001F93CF93DF936115710559F48FEF9FEFF7
:103F0000DF91CF911F910F91FF90EF90DF90CF90B5
:103F100008958B01EC01CB01880F991F0E949D37FA
:103F20007C01892B59F3CA80DB80C114D10459F07C
:103F30004C815D814115510531F0440F551FB6018B
:103F4000C7010E94D13AC6010E943938EA82FB8239
:103F50000E831F8390E080E0D3CF6F927F928F9289
:103F60009F92AF92BF92CF92DF92EF92FF920F9308
:103F70001F93CF93DF93EC01EA80FB80CC80DD8040
:103F8000E114F104A1F4C114D104A1F08FEF9FEF6B
:103F9000DF91CF911F910F91FF90EF90DF90CF9025
:103FA000BF90AF909F908F907F906F900895C114B5
:103FB000D10461F36115710549F34B015B01AA0C52
:103FC000BB1CC5010E949D378C01892BF9F2C501EC
:103FD0000E949D375C01892B21F4C8010E94393869
:103FE000D5CFE114F104A1F0C114D10489F06E80A1
:103FF0007F806114710461F0660C771CA301B70126
:10400000C8010E94D13AA301B601C5010E94D13A6C
:10401000C7010E9439388C819D810E9439380A83FA
:104020001B83AC82BD828886998690E080E0B0CF09
:10403000AF92BF92CF92DF92EF92FF920F931F93B6
:10404000CF93DF937C016B01EA0110E000E0209741
:1040500041F0DC0118966D917C91CA010E948E3668
:104060008C01C7010E940807882309F442C0F701A8
:10407000A084B184B501C6010E948E369801295FE3
:104080003F4F820F931FA816B90698F1D7011696D5
:104090006D917C9145E050E0C6010E944A02BE014C
:1040A000600F711FFE01EC01CE1BDF0B6E01CE0E07
:1040B000DF1ED70116964D915C916E177F0731F088
:1040C0002191D601A40FB51F2C93F0CF05501109F3
:1040D0009801280F391F60E3C701DF91CF911F912D
:1040E0000F91FF90EF90DF90CF90BF90AF900C9426
:1040F0003D0780E0DF91CF911F910F91FF90EF90EE
:10410000DF90CF90BF90AF900895CF93DF93DC0105
:1041100014962D913C911597232B79F0FB01CD91AD
:10412000DC9160817181CE010E94243B009729F0CF
:104130008C1B9D0BDF91CF9108958FEF9FEFFACFEE
:104140000F931F93CF93DF938C01EB01FC018081D0
:1041500091810097E1F06881798161157105A9F07D
:10416000428153812C813D814217530770F00E9498
:10417000003B8C819D81F801848395831C821D8284
:10418000DF91CF911F910F9108950E943938888156
:104190009981F801808391838A819B8182839383B3
:1041A0008C819D8184839583188219821A821B8257
:1041B000E5CF2F923F924F925F926F927F928F92B4
:1041C0009F92AF92BF92CF92DF92EF92FF920F93A6
:1041D0001F93CF93DF9300D000D0CDB7DEB7FC01A3
:1041E000448055804114510409F411C1FB016480DD
:1041F00075806114710409F40AC17A016B018B8323
:104200009C83FA01A480B580A618B708FC01008140
:104210001181A114B104B9F4F60160817181C80162
:104220000E94243B8C01009709F4F1C0F7016081E2
:104230007181448155810E94D13AF7018481958131
:10424000080F191FE9CFB7FC10C0FB012080318097
:104250004201C801B1010E94243B009709F44DC0FE
:10426000860D971D8A0C9B1CF5CF3801F6016081E5
:104270007181C8010E94243B2C01009729F14C0157
:10428000801A910AA401B801C3010E94D13A680CB6
:10429000791CF7016081718144815581C3010E94BD
:1042A000D13AF70184809580680C791CF60104816D
:1042B0001581040D151DEB81FC81848195818A0D8A
:1042C0009B1D84839583D2CFB801C3012496CDBFB3
:1042D000DEBFDF91CF911F910F91FF90EF90DF90A4
:1042E000CF90BF90AF909F908F907F906F905F9096
:1042F0004F903F902F900C94003B4814590409F4C0
:1043000086C0EB81FC81828193818815990578F4C0
:10431000B4016F5F7F4FC8010E94043A009709F40F
:1043200076C0EB81FC818083918382829382EB81D2
:10433000FC81048115810150110917FD68C0380105
:10434000F601248035802114310409F460C0EB812A
:10435000FC81848095808114910409F458C08214F2
:10436000930408F454C00815190520F03401F1E055
:104370006F1A7108EB81FC8140805180C2010FEF00
:104380001FEF9201260D371D29833A83E981FA81B7
:10439000E817F90788F0F601608171810E94243BDB
:1043A000009751F09C01241935096216730608F430
:1043B000980101968901EACF17FD29C0200E311E10
:1043C000C201820D931DA40142195309BC018A0D3B
:1043D0009B1D0E94DA3AEB81FC81848195818A0DD4
:1043E0009B1D8483958320813181820F931FFC0163
:1043F0001082EB81FC8180819181F7016081718164
:1044000044815581800F911F0E94D13A94CF249608
:10441000CDBFDEBFDF91CF911F910F91FF90EF9045
:10442000DF90CF90BF90AF909F908F907F906F90D4
:104430005F904F903F902F9008950F931F93CF93CD
:10444000DF93EC0188819981009759F02A813B81A3
:104450002617370730F081E0DF91CF911F910F9140
:1044600008958B016F5F7F4F0E94043A009759F0C7
:10447000888399830A831B832C813D81232B59F7E1
:10448000FC011082E8CF80E0E7CFEF92FF920F931C
:104490001F93CF93DF936115710541F480E0DF91A5
:1044A000CF911F910F91FF90EF9008954115510505
:1044B000B1F07B01EC010C811D81040F151FB801C7
:1044C0000E941D22882351F3288139818C819D818E
:1044D000B701820F931F0E94003B0C831D8381E074
:1044E000DECFCF93DF93EC01FB0101900020E9F7D1
:1044F0003197AF01461B570B0E944522811103C023
:10450000CE010E943D11CE01DF91CF910895CF934E
:10451000DF93EC01FB0144815581608171810E9430
:104520004522811103C0CE010E943D11CE01DF91D1
:10453000CF910895CF93DF9300D0CDB7DEB76983D5
:104540001A8241E050E0BE016F5F7F4F0E9445221A
:104550000F900F90DF91CF910895EF92FF920F93FC
:104560001F93CF93DF93EC017B018A01BA010E9474
:104570001D2281110BC0CE010E943D11CE01DF91A1
:10458000CF911F910F91FF90EF9008950C831D83A1
:10459000B701888199810E94003BF0CFEF92FF9292
:1045A0000F931F93CF93DF93CDB7DEB7A297CDBF05
:1045B000DEBF8C01CB01BA01F80110821182128298
:1045C0001382148215822AE0AE014F5F5F4F7A0199
:1045D0000E949936F70101900020E9F73197AF0169
:1045E0004E195F09B701C8010E94AD22A296CDBF46
:1045F000DEBFDF91CF911F910F91FF90EF90089553
:10460000FB01DC011D921C92119712961D921C92C7
:10461000139714961D921C9215978617970749F0C9
:10462000608171816115710521F0448155810C947F
:10463000AD220895FC01108211821282138214822D
:1046400015826115710551F0FB0101900020E9F719
:104650003197AF01461B570B0C94AD220895AF92D2
:10466000BF92CF92DF92EF92FF920F931F93CF935F
:10467000DF937C016B015A0189012417350720F46F
:104680008B2D5901042F182F6FEF7DEBC7010E946E
:104690001A23D6011496CD91DC91AC16BD0620F5F7
:1046A0000C171D0708F4E801D601ED91FC91119754
:1046B000EC0FFD1F108110826D917C916A0D7B1DA6
:1046C00061157105E9F0FB0101900020E9F73197D0
:1046D000AF01461B570BC7010E94AD22F601808136
:1046E0009181C80FD91F1883C701DF91CF911F9106
:1046F0000F91FF90EF90DF90CF90BF90AF90089513
:10470000C7010E943D11EACF0F931F93CF93DF9310
:10471000EC018B016FEF7DEB0E941A23D8016C91A5
:10472000662369F1862F8F7D81548A3120F080EDD8
:10473000860F8A3030F4CE010E949A220F5F1F4FFD
:10474000EDCF65E2CE010E949A22D801EC910E2EA7
:10475000000CFF0B84E0F595E7958A95E1F7E552AB
:10476000F4446081CE010E949A22D801EC91EF704E
:104770000E2E000CFF0BE552F4446081DCCFCE011D
:10478000DF91CF911F910F910895CF93DF93EC01AB
:1047900040E250E06BED72E088599F4F0E946D3609
:1047A0001C821D821E821F82C853DF4F1882DF9138
:1047B000CF910895AF92BF92CF92DF92EF92FF9286
:1047C0000F931F93CF93DF938C016B017A01D0E09D
:1047D000C0E00115110531F0F80186819781C817F5
:1047E000D90718F090E080E023C05E01AA0CBB1C42
:1047F000D8011296ED91FC91EA0DFB1D808191810B
:10480000FC0101900020E9F73197E81BF90BEE1548
:10481000FF05C9F4A701B6010E94073B892B99F453
:10482000F80184819581A80EB91ED5018D919C91C6
:10483000DF91CF911F910F91FF90EF90DF90CF907C
:10484000BF90AF9008952196C4CFCF93DF93CDB79B
:10485000DEB7D250CDBFDEBF9E012B5F3D4FF901C9
:10486000419151919F0160E072E0CE0101960E945A
:104870003E3BBE016F5F7F4F82E398E20E940519C5
:10488000DE5FCDBFDEBFDF91CF9108952F923F92C3
:104890004F925F926F927F928F929F92AF92BF9250
:1048A000CF92DF92EF92FF920F931F93CF93DF93FC
:1048B000CDB7DEB72897CDBFDEBF7C014B01F70136
:1048C000A080B180D5011C91812F90E00E946436B8
:1048D000892B21F51B3509F4E2C10CF061C01D32B2
:1048E00039F11CF5123209F4BAC210E000E0C80137
:1048F0002896CDBFDEBFDF91CF911F910F91FF9022
:10490000EF90DF90CF90BF90AF909F908F907F906F
:104910006F905F904F903F902F9008952FEFA21AC5
:10492000B20AD701AD92BC92CACF10531A30E8F642
:104930001092892910928A29BE016F5F7F4FC501AD
:104940000E9414352B013C018091892990918A297C
:10495000892B59F6C980DA80F70100811181C601DF
:10496000801B910B82309105C8F0D8012C91203327
:1049700029F411962C912E3209F0B7CF029771F0DD
:1049800042E050E06FE17EEBC8010E94073B892BBB
:1049900029F4F80182818E3209F0A7CF5601A0C216
:1049A0001E3609F4C5C2CCF4163609F09ECF44E099
:1049B00050E0B50184E19EEB0E94073B892B09F092
:1049C0006FC2B4E0AB0EB11CF701A082B18281E0EE
:1049D00090E00E9424108C018ACF143741F31B37DA
:1049E00009F083CF88E090E00E949D378C0100970A
:1049F00009F47BCFFC011082118284E090E0828375
:104A000093838AE090E00E949D376C01009721F427
:104A1000C8010E94393869CFDC010D931C931197AE
:104A200012961D921C92139714961D921C92159724
:104A300018961D921C92199716961D921C92179704
:104A4000F80184839583D5018C918B3721F0C801BF
:104A50000E9439104ACFBFEFAB1ABB0AF701A08200
:104A6000B182F701A080B180D5017C90872D90E0C4
:104A70000E946436892B61F5BDE77B1681F1F40154
:104A80003196EB83FC83D701ED91FC9180818111FC
:104A90002DC0D701AD90BC90F5019080892D90E09C
:104AA0000E946436892B09F0F3C0FDE79F12CFCF37
:104AB000D60116966D917C91C6010E94AD1F01969C
:104AC00031F2F701808191810196808391830FCF2C
:104AD000FFEFAF1ABF0AD701AD92BC92C2CFFFEF72
:104AE000AF1ABF0AD701AD92BC9201CFC7010E9495
:104AF000161E5C01892B09F4AACFD7018D909C90DA
:104B0000F4017080872D90E00E946436892B39F47F
:104B1000FAE37F1659F0C5010E94393898CFBFEFEC
:104B20008B1A9B0AF70180829182E7CF2FEF821ABE
:104B3000920AD7018D929C92EB81FC81E130F84082
:104B400050F76B817C81C7010E9446242C01892B80
:104B500011F3F50101900020E9F731973F016A1840
:104B60007B08A301B501C6010E94DA23892B09F055
:104B700078C0D60118966D917C91199716968D91F3
:104B80009C918617970708F05FC0F6010680F781B1
:104B9000E02DED83FE831F01220C331CD6011296FB
:104BA0008D919C91FC01E20DF31DEF83F887C30109
:104BB00001960E949D374C01009709F059C0AF81C2
:104BC000B8858D929C92892809F44BC0F6018081AA
:104BD0009181D2018D939C9384819581280E391EF9
:104BE000F101408251828D819E810196D6011696F7
:104BF0008D939C931797C5010E943938D701AD90CA
:104C0000BC90F5019080892D90E00E946436892B3C
:104C1000C1F5FCE29F1249CF2FEFA21AB20AD701C9
:104C2000AD92BC92D701AD90BC90F501808190E02F
:104C30000E946436892B09F426CFBFEFAB1ABB0A5A
:104C4000F701A082B182EECF660F771F6031710548
:104C500010F460E170E0C6010E94AD1F019609F0FA
:104C600094CFC5010E943938C2010E943910EFCE9D
:104C7000FC01E60DF71D1082A301B5010E94153B52
:104C80009ECFBFEFAB1ABB0AF701A082B182B6CFAD
:104C9000BFEFAB1ABB0AF701A082B182FACE88E05F
:104CA00090E00E949D378C01009709F41ECEDC0134
:104CB0001D921C92119785E090E012968D939C9323
:104CC000139788E090E00E949D376C01009709F4EB
:104CD0009FCEFC01008311831282138216821782F9
:104CE00014821582D80114968D939C931597F50123
:104CF00080818B3509F0ABCEFFEFAF1ABF0AD70129
:104D0000AD92BC92D701AD90BC90F5017080872D1B
:104D100090E00E946436892B51F4FDE52FEF821A52
:104D2000920A7F125CC03FEFA31AB30ADBCEBFEF3B
:104D3000AB1ABB0AF701A082B182E4CFB1E08B16B7
:104D4000B8E09B0608F083CEB401C7010E94462458
:104D50005C01892B09F47BCEF60166817781848121
:104D600095818617970708F056C0D6018D919C91C2
:104D70001197F5018083918314968D919C911597DD
:104D80009C01220F331F1296ED91FC911397E20FB5
:104D9000F31FA082B182019614968D939C93159770
:104DA000F701A080B180D5017C90872D90E00E9412
:104DB0006436892B09F03EC0BCE27B1221C0EFEFC4
:104DC000AE1ABE0AD701AD92BC92D701AD90BC908D
:104DD000F501808190E00E946436892B91F5D7011E
:104DE000ED91FC9180818111A9CFD701AD90BC904C
:104DF000F5017080872D90E00E946436892B41F583
:104E0000FDE57F1224CED60114966D917C91C601EA
:104E10000E94731F54CE660F771F6031710510F426
:104E200060E170E0C6010E94731F019609F09DCFFA
:104E3000C5011BCF2FEFA21AB20AD701AD92BC92C7
:104E4000AFCFBFEFAB1ABB0AF701A082B182BDCFD3
:104E5000BFEFAB1ABB0AF701A082B182C6CFC70170
:104E60000E94161E7C01892B09F43FCD88E090E05A
:104E70000E949D378C01009721F4C7010E943938A8
:104E800036CDDC011D921C92119782E090E01296C3
:104E90008D939C9313971496ED92FC92159727CDC2
:104EA00045E050E0B50189E19EEB0E94073B892B6C
:104EB00009F01BCDF5E0AF0EB11CD701AD92BC924D
:104EC00090E080E086CDD5016E915D01062E000C4C
:104ED000770B82E29EEB0E94EC3A892B09F005CD1C
:104EE0000A151B0581F7F701C082D18220E030E06E
:104EF000A901C301B2010E94303720E030E0A901CE
:104F00000E94CA368111F1CC88E090E00E949D3762
:104F10008C01009709F4EBCCFC011082118283E034
:104F200090E0828393834482558266827782DFCCCD
:104F300044E050E0B50185E29EEB0E94073B892BDF
:104F400009F0D3CCB4E0AB0EB11CF701A082B18262
:104F500088E090E00E949D378C01009709F4C7CC4F
:104F6000DC011D921C92119781E090E012968D93C6
:104F70009C931397BCCCAF92BF92CF92DF92EF92EB
:104F8000FF920F931F93CF93DF93CDB7DEB7E697D2
:104F9000CDBFDEBFD82EC92E5B017A01682F792FD5
:104FA000CE018B960E941A230BA51CA50115110595
:104FB00071F0F80181918F01882349F0082E000CCF
:104FC000990B0E94C93AF80131978083F2CFF5011D
:104FD000EE0DFF1D1082B501CE01C1960E941A236D
:104FE0006AE27EEBCE0101960E941A234D815E811A
:104FF0008FA598A98417950770F08BA59CA500979D
:1050000051F069817A816115710529F00E94073B91
:1050100011E0892B09F010E0CE0101960E944F119A
:10502000112309F415C1BE016F5C7F4FCE01859637
:105030000E940023BE01655D7F4FCE014F960E9406
:10504000002360E47EEBCE0101960E941A23BE018C
:105050006F5F7F4FCE014F960E9485202BA13CA110
:10506000AC014B5F5F4FBE01615E7F4FCE01499641
:105070000E942F23CE0101960E944F1166E47EEB21
:10508000CE0101960E941A23BE016F5F7F4FCE01B1
:105090004F960E9485208C016AE27EEBCE01079636
:1050A0000E941A23BE01695F7F4FCE014F960E9476
:1050B0008520AC014B5E5F4F9801BE01615E7F4F62
:1050C000CE0143960E942F23CE0107960E944F11D6
:1050D000CE0101960E944F118EA18F938DA18F93C7
:1050E0008C898F938B898F938AE49EEB9F938F9308
:1050F0000E94252460E87EEB8B899C890E94F73A08
:105100000F900F900F900F900F900F90892B09F038
:1051100051C06CEE7BEBCE010D960E941A2365E820
:105120007EEBCE0101960E941A23AE01475E5F4FCF
:10513000BE016F5F7F4FCE010D960E94D920CE0138
:1051400001960E944F1162E97EEBCE0101960E940A
:105150001A2366E97EEBCE0107960E941A23AE0160
:105160004F5F5F4FBE01695F7F4FCE010D960E947A
:10517000D920CE0107960E944F11CE0101960E94C0
:105180004F116D857E854FEF5DEB80912F289091BB
:1051900030280E941820EDA1FEA1E983FA83309700
:1051A00079F510E000E0C8010E943910CE010D969B
:1051B0000E944F11CE0143960E944F11CE01499695
:1051C0000E944F11CE014F960E944F11CE0185963D
:1051D0000E944F11CE01C1960E944F11CE018B96B5
:1051E0000E944F11E696CDBFDEBFDF91CF911F9198
:1051F0000F91FF90EF90DF90CF90BF90AF90089508
:1052000080818F3E49F481818B3B31F482818F3BD9
:1052100019F43396E983FA8370E060E0CE010196D9
:105220000E9446248C01009709F4BBCFFC018281C7
:105230009381049709F0B7CF84819581009709F491
:10524000B2CF4EE050E06FE97EEB0E94DA23ABCFA5
:105250008AA98F9389A98F93CF92DF928EEA9EEBD2
:105260009F938F930E9425240F900F900F900F9083
:105270000F900F90AFCF1F920F920FB60F92112485
:105280002F933F934F935F936F937F938F939F934E
:10529000AF93BF93EF93FF9382E398E20E94C20221
:1052A000FF91EF91BF91AF919F918F917F916F91FE
:1052B0005F914F913F912F910F900FBE0F901F90D4
:1052C00018951F920F920FB60F9211242F938F9360
:1052D0009F93EF93FF93E0913E28F0913F288181C7
:1052E00081FD1BC09081809144288F5F8F73209136
:1052F0004528821741F0E0914428F0E0EE5CF74D3C
:10530000918F80934428FF91EF919F918F912F91DE
:105310000F900FBE0F901F9018958081F4CF1F92B1
:105320000F920FB60F9211242F933F934F935F93D9
:105330006F937F938F939F93AF93BF934091112867
:1053400050911228609113287091142880910F2891
:105350009091102820911B2830911C28420F531F38
:10536000611D711D2091192830911A28820F931FF9
:10537000883E23E0920730F0885E93404F5F5F4F96
:105380006F4F7F4F80930F289093102840931128E0
:105390005093122860931328709314288091152835
:1053A00090911628A0911728B09118280196A11D58
:1053B000B11D8093152890931628A0931728B093B9
:1053C000182881E08093B60ABF91AF919F918F9189
:1053D0007F916F915F914F913F912F910F900FBEF1
:1053E0000F901F901895CF93DF9387E499E20E9466
:1053F0004F1181E499E20E944F118BE399E20E94E0
:105400004F11D0E0C0E0CE010E9424112196CA3095
:10541000D105C9F7DF91CF910895CF92DF92EF9236
:10542000FF921F93CF93DF93E2E3F8E2128213829D
:1054300088EEC82E83E0D82EE12CF12CC482D582D0
:10544000E682F78285E59DEB8083918380E698E094
:10545000848795878AE186878BE1878780E4808BC4
:10546000128A138A148A158A86E2868B178A108E0E
:10547000EDE0F9E280E099E0ADE3B0E08083918374
:10548000A283B3831482158281E090E086839783A0
:10549000EBECF8E28FE69DEB80839183178211E0BD
:1054A000168381E2828382E2848380E2838386E1C1
:1054B0008583EDE4F9E28CE3DF011D928A95E9F73B
:1054C00080E593ECA0E0B0E0809315299093162935
:1054D000A0931729B09318296FEF7DEB8BE399E226
:1054E0000E941A236FEF7DEB81E499E20E941A2358
:1054F0006FEF7DEB87E499E20E941A23ECE2F9E278
:1055000012821382C482D582E682F7828FEF84876B
:105510008BED9DEB80839183C9E1D9E28BE08D8394
:105520008E831F8384E0888760910328709104280C
:10553000809105289091062820E432E44FE050E065
:105540000E948539A8EEB3E00E9426396D877E87D8
:105550008F87988BDF91CF911F91FF90EF90DF9015
:10556000CF900895CF93DF93CDB7DEB7C856D1095A
:10557000CDBFDEBF88ED90E084BF9093610080E0F6
:1055800094E2A4EFB0E08093032890930428A093C2
:105590000528B09306288091020686608093020653
:1055A00080910006816080930006809102068F7CC6
:1055B000809302068091A0008F788093A000809154
:1055C00002068061809302061092E20581E08093DA
:1055D000E40583E08093010A8FEF90E08093260A30
:1055E0009093270A80E890E08093380A9093390AD4
:1055F00080933A0A90933B0A80933C0A90933D0A29
:105600008BE08093000A8091E50581608093E50539
:105610008091E50582608093E505E0E8FAE037E0F7
:105620002FEF90E885E031832487958780837096FB
:10563000E03C4AE0F407B9F780E094E080931F284B
:105640009093202880911F28909120282FEF30E000
:10565000B9010E94713960931D2870931E288091B2
:105660001F2890912028E8EEF3E0BF010E947139D5
:1056700060931B2870931C2880911F2890912028EC
:10568000BF010E9471398093192890931A282093A2
:10569000BC0A3093BD0A8091B50A81608093B50A37
:1056A00084E08093B00A8091B00A81608093B00A50
:1056B000789461E070E08CE10E94AA0361E070E000
:1056C0008CE10E940F0461E070E08DE10E94AA036A
:1056D00061E070E08DE10E940F0461E070E083E220
:1056E0000E94AA0361E070E083E20E940F0461E07F
:1056F00070E08EE10E94AA0361E070E08EE10E94FA
:105700000F0440E052EC61E070E082E398E20E9416
:10571000181060EE7EEB82E398E20E9405198091FA
:105720003128811102C00E9405120E9491090E9435
:10573000321360E087E30E94A8090E94E30A0E94F6
:1057400091090E94321319828E010F5F1F4FA80129
:1057500061E278E287E30E94510A0E94E30A61E273
:1057600078E282E398E20E94A4198CE09DEB9F937B
:105770008F938AEF9EEB9F938F930E9425240F9027
:105780000F900F900F9080913128811102C00E94DC
:1057900005120E9491090E94321362E081E10E9489
:1057A000A80940E069E18CE09DEB0E94F00941E02E
:1057B0006DE18EEE9CEB0E94F0090E94E30A0E94CC
:1057C00091090E94321319AA1982A801BE016F5CC7
:1057D0007F4F81E10E94510A892B11F48FEF89AB31
:1057E0000E94E30A89A924E0F22E8F3F09F443C006
:1057F0000E9453054B015C01F12CEE24EA940E94B7
:105800005305681979098A099B0940901529509018
:10581000162960901729709018296415750586055A
:10582000970548F564E670E080E090E00E9423056B
:1058300080913128811102C00E9405120E949109B5
:105840000E94321360E080E20E94A8090E94E30AED
:105850000E9491090E943213E9AA1982A801BE018F
:105860006F5C7F4F80E20E94510A0E94E30AF9A810
:1058700052E05F1520F683E0F81669F06CE370ECF7
:1058800082E398E20E94051968EE73E080E090E000
:105890000E942305F0CF63E27FEB82E398E20E944F
:1058A000A4196EE67CEBCE01C1960E941A236FE22A
:1058B0007FEBC8010E941A23B801CE01C1960E9455
:1058C00085205C01C8010E944F1169E37FEBC8018C
:1058D0000E941A23B801CE01C1960E9485207C0146
:1058E000C8010E944F1164E47FEBC8010E941A2393
:1058F000B801CE01C1960E9485206C01C8010E94AA
:105900004F11A501475F5F4F9701BE016F5C7F4F4D
:10591000C8010E942F23B8018BE399E20E94A020C6
:10592000C8010E944F11A701465F5F4F9601BE015B
:105930006F5C7F4FC8010E942F23B80181E499E278
:105940000E94A020C8010E944F112DA93EA9A601C6
:105950004F5E5F4FBE016F5C7F4FC8010E942F23D7
:10596000B80187E499E20E94A020C8010E944F116B
:10597000CE01C1960E944F1166E57FEBCE018E5B92
:105980009F4F0E941A2361E479E2CE018E5B9F4F04
:105990000E948722BC01CE01C1960E94002369A902
:1059A0007AA9C8010E9484236BE379E2CE01885B67
:1059B0009F4F0E940023B801CE01885B9F4F0E9439
:1059C0008722BC01CE01865A9F4F0E940023CE0140
:1059D000885B9F4F0E944F11C8010E944F11CE015A
:1059E000C1960E944F11CE018E5B9F4F0E944F11B6
:1059F00020904729309048291BAA1CAA88EE93E0E2
:105A0000A0E0B0E08DAB9EABAFABB8AF8BE99CEB49
:105A100089AB9AAB8FEF8DAF22961EAE1FAE229749
:105A200066E579E0CE01C1960E94E91780E3D801CE
:105A30001D928A95E9F783EE898386E08B839CEE3D
:105A40009C8391E39D872EE42E879F8794E3988B18
:105A50002FE43DEB24962EAF3FAF249791E8259697
:105A60009FAF259726968FAF26978FE027968FAF0B
:105A700027978CE128968FAF28974BE750E0BE011F
:105A80006E5B7F4FCE01C1960E94A81640E350E0A6
:105A9000B801CE01C1960E94CE16CE01C1960E94D9
:105AA000241794E1C92ED12C64EF71E080E090E0DE
:105AB0000E942305CE01C1960E94451C892B09F442
:105AC00055C040E350E0B801CE01C1960E94011CD0
:105AD00049A45AA4542445245424712C612C320125
:105AE000552444248BA59CA5982789279827B0E0A6
:105AF000A0E0482A592A6A2A7B2ACE01C1960E9430
:105B00001F1660E67FEB82E398E20E94A419E0E8AA
:105B10004E1AEEE75E0AEAEA6E0AE3E87E0AFFE260
:105B20005F0EFDE06F1E711CBE01665A7F4FCE01F5
:105B3000825B9F4F0E9400232DB73EB7A9962EAFE0
:105B40003FAFA9976096CEACDFAC6097C114D1048B
:105B5000E1F0D6018C918823C1F0082E000C990B3E
:105B60000E94C13AF60181936F01F3CFB1E0CB1AE5
:105B7000D10809F099CF62E77FEB82E398E20E94B7
:105B8000A419412C512C3201CACFB301A201C80182
:105B90000E94CE22BE01625B7F4FCE01C1960E9461
:105BA00000236EEF7DEBCE01C1960E947122B801F9
:105BB0000E948722BC01CE01885B9F4F0E94002378
:105BC000CE01C1960E944F11C8010E944F11F101F0
:105BD00001900020E9F73197E219F30991012E0FA6
:105BE0003F1FA7962EAF3FAFA797D90190E080E067
:105BF0002E912D3311F40196FBCF26E02E9F6001EC
:105C00002F9FD00C1124B3E0D594C794BA95E1F737
:105C1000A601481B590BA5964EAF5FAFA5978DB750
:105C20009EB7841B950B8DBF9EBFADB7BEB71196B7
:105C30004D01D12CC12CB12CA12CFE013596A3967F
:105C4000EEAFFFAFA397A7962EAD3FADA797221556
:105C5000330599F1D1012D911D012D3371F1C5014C
:105C60000196F801EA0DFB1D20838430910519F59A
:105C70007801F70181917F010E94A60FF70131970A
:105C80008083A3962EAD3FADA397E216F30689F766
:105C9000B801CE01C1960E94C20FF401EC0DFD1DAA
:105CA00089A980838AA981838BA9828333E0C30E6B
:105CB000D11C90E080E05C01C6CFA114B104C1F119
:105CC000F801EA0DFB1D1801CF01801B910B049711
:105CD00014F41192F8CF7E0145E0E40EF11CD101DD
